{
  "contractName": "Lottery",
  "abi": [
    {
      "inputs": [],
      "stateMutability": "nonpayable",
      "type": "constructor"
    },
    {
      "inputs": [],
      "name": "manager",
      "outputs": [
        {
          "internalType": "address",
          "name": "",
          "type": "address"
        }
      ],
      "stateMutability": "view",
      "type": "function",
      "constant": true
    },
    {
      "inputs": [
        {
          "internalType": "uint256",
          "name": "",
          "type": "uint256"
        }
      ],
      "name": "players",
      "outputs": [
        {
          "internalType": "address",
          "name": "",
          "type": "address"
        }
      ],
      "stateMutability": "view",
      "type": "function",
      "constant": true
    },
    {
      "inputs": [
        {
          "internalType": "uint256",
          "name": "",
          "type": "uint256"
        }
      ],
      "name": "rewards",
      "outputs": [
        {
          "internalType": "uint256",
          "name": "",
          "type": "uint256"
        }
      ],
      "stateMutability": "view",
      "type": "function",
      "constant": true
    },
    {
      "inputs": [
        {
          "internalType": "uint256",
          "name": "",
          "type": "uint256"
        }
      ],
      "name": "winners",
      "outputs": [
        {
          "internalType": "address",
          "name": "",
          "type": "address"
        }
      ],
      "stateMutability": "view",
      "type": "function",
      "constant": true
    },
    {
      "inputs": [],
      "name": "enter",
      "outputs": [],
      "stateMutability": "payable",
      "type": "function",
      "payable": true
    },
    {
      "inputs": [],
      "name": "pickWinner",
      "outputs": [],
      "stateMutability": "nonpayable",
      "type": "function"
    },
    {
      "inputs": [],
      "name": "getPlayers",
      "outputs": [
        {
          "internalType": "address[]",
          "name": "",
          "type": "address[]"
        }
      ],
      "stateMutability": "view",
      "type": "function",
      "constant": true
    },
    {
      "inputs": [],
      "name": "getWinners",
      "outputs": [
        {
          "internalType": "address[]",
          "name": "",
          "type": "address[]"
        }
      ],
      "stateMutability": "view",
      "type": "function",
      "constant": true
    },
    {
      "inputs": [],
      "name": "getRewards",
      "outputs": [
        {
          "internalType": "uint256[]",
          "name": "",
          "type": "uint256[]"
        }
      ],
      "stateMutability": "view",
      "type": "function",
      "constant": true
    }
  ],
  "bytecode": "0x608060405234801561001057600080fd5b50336000806101000a81548173ffffffffffffffffffffffffffffffffffffffff021916908373ffffffffffffffffffffffffffffffffffffffff160217905550610edb806100606000396000f3fe6080604052600436106100865760003560e01c8063a2fb117511610059578063a2fb117514610123578063df15c37e14610160578063e97dcb621461018b578063f301af4214610195578063f71d96cb146101d257610086565b80630572b0cc1461008b578063481c6a75146100b65780635d495aea146100e15780638b5b9ccc146100f8575b600080fd5b34801561009757600080fd5b506100a061020f565b6040516100ad919061090e565b60405180910390f35b3480156100c257600080fd5b506100cb610267565b6040516100d89190610971565b60405180910390f35b3480156100ed57600080fd5b506100f661028b565b005b34801561010457600080fd5b5061010d6104fd565b60405161011a9190610a4a565b60405180910390f35b34801561012f57600080fd5b5061014a60048036038101906101459190610a9d565b61058b565b6040516101579190610971565b60405180910390f35b34801561016c57600080fd5b506101756105ca565b6040516101829190610a4a565b60405180910390f35b610193610658565b005b3480156101a157600080fd5b506101bc60048036038101906101b79190610a9d565b610706565b6040516101c99190610ad9565b60405180910390f35b3480156101de57600080fd5b506101f960048036038101906101f49190610a9d565b61072a565b6040516102069190610971565b60405180910390f35b6060600380548060200260200160405190810160405280929190818152602001828054801561025d57602002820191906000526020600020905b815481526020019060010190808311610249575b5050505050905090565b60008054906101000a900473ffffffffffffffffffffffffffffffffffffffff1681565b60008054906101000a900473ffffffffffffffffffffffffffffffffffffffff1673ffffffffffffffffffffffffffffffffffffffff163373ffffffffffffffffffffffffffffffffffffffff1614610319576040517f08c379a000000000000000000000000000000000000000000000000000000000815260040161031090610b77565b60405180910390fd5b600060018054905011610361576040517f08c379a000000000000000000000000000000000000000000000000000000000815260040161035890610be3565b60405180910390fd5b6000600180549050610371610769565b61037b9190610c32565b905060006001828154811061039357610392610c63565b5b9060005260206000200160009054906101000a900473ffffffffffffffffffffffffffffffffffffffff16905060004790508173ffffffffffffffffffffffffffffffffffffffff166108fc829081150290604051600060405180830381858888f1935050505015801561040b573d6000803e3d6000fd5b506002829080600181540180825580915050600190039060005260206000200160009091909190916101000a81548173ffffffffffffffffffffffffffffffffffffffff021916908373ffffffffffffffffffffffffffffffffffffffff1602179055506003819080600181540180825580915050600190039060005260206000200160009091909190915055600067ffffffffffffffff8111156104b3576104b2610c92565b5b6040519080825280602002602001820160405280156104e15781602001602082028036833780820191505090505b50600190805190602001906104f792919061079f565b50505050565b6060600180548060200260200160405190810160405280929190818152602001828054801561058157602002820191906000526020600020905b8160009054906101000a900473ffffffffffffffffffffffffffffffffffffffff1673ffffffffffffffffffffffffffffffffffffffff1681526020019060010190808311610537575b5050505050905090565b6002818154811061059b57600080fd5b906000526020600020016000915054906101000a900473ffffffffffffffffffffffffffffffffffffffff1681565b6060600280548060200260200160405190810160405280929190818152602001828054801561064e57602002820191906000526020600020905b8160009054906101000a900473ffffffffffffffffffffffffffffffffffffffff1673ffffffffffffffffffffffffffffffffffffffff1681526020019060010190808311610604575b5050505050905090565b662386f26fc1000034116106a1576040517f08c379a000000000000000000000000000000000000000000000000000000000815260040161069890610d0d565b60405180910390fd5b6001339080600181540180825580915050600190039060005260206000200160009091909190916101000a81548173ffffffffffffffffffffffffffffffffffffffff021916908373ffffffffffffffffffffffffffffffffffffffff160217905550565b6003818154811061071657600080fd5b906000526020600020016000915090505481565b6001818154811061073a57600080fd5b906000526020600020016000915054906101000a900473ffffffffffffffffffffffffffffffffffffffff1681565b60004442600160405160200161078193929190610e6c565b6040516020818303038152906040528051906020012060001c905090565b828054828255906000526020600020908101928215610818579160200282015b828111156108175782518260006101000a81548173ffffffffffffffffffffffffffffffffffffffff021916908373ffffffffffffffffffffffffffffffffffffffff160217905550916020019190600101906107bf565b5b5090506108259190610829565b5090565b5b8082111561084257600081600090555060010161082a565b5090565b600081519050919050565b600082825260208201905092915050565b6000819050602082019050919050565b6000819050919050565b61088581610872565b82525050565b6000610897838361087c565b60208301905092915050565b6000602082019050919050565b60006108bb82610846565b6108c58185610851565b93506108d083610862565b8060005b838110156109015781516108e8888261088b565b97506108f3836108a3565b9250506001810190506108d4565b5085935050505092915050565b6000602082019050818103600083015261092881846108b0565b905092915050565b600073ffffffffffffffffffffffffffffffffffffffff82169050919050565b600061095b82610930565b9050919050565b61096b81610950565b82525050565b60006020820190506109866000830184610962565b92915050565b600081519050919050565b600082825260208201905092915050565b6000819050602082019050919050565b6109c181610950565b82525050565b60006109d383836109b8565b60208301905092915050565b6000602082019050919050565b60006109f78261098c565b610a018185610997565b9350610a0c836109a8565b8060005b83811015610a3d578151610a2488826109c7565b9750610a2f836109df565b925050600181019050610a10565b5085935050505092915050565b60006020820190508181036000830152610a6481846109ec565b905092915050565b600080fd5b610a7a81610872565b8114610a8557600080fd5b50565b600081359050610a9781610a71565b92915050565b600060208284031215610ab357610ab2610a6c565b5b6000610ac184828501610a88565b91505092915050565b610ad381610872565b82525050565b6000602082019050610aee6000830184610aca565b92915050565b600082825260208201905092915050565b7f4373616b2061206d616e61676572207475646a61206d65676869766e6920612060008201527f6675676776656e79740000000000000000000000000000000000000000000000602082015250565b6000610b61602983610af4565b9150610b6c82610b05565b604082019050919050565b60006020820190508181036000830152610b9081610b54565b9050919050565b7f4e6f20706c617965727320696e20746865206c6f747465727900000000000000600082015250565b6000610bcd601983610af4565b9150610bd882610b97565b602082019050919050565b60006020820190508181036000830152610bfc81610bc0565b9050919050565b7f4e487b7100000000000000000000000000000000000000000000000000000000600052601260045260246000fd5b6000610c3d82610872565b9150610c4883610872565b925082610c5857610c57610c03565b5b828206905092915050565b7f4e487b7100000000000000000000000000000000000000000000000000000000600052603260045260246000fd5b7f4e487b7100000000000000000000000000000000000000000000000000000000600052604160045260246000fd5b7f4d696e696d756d20657468202e30310000000000000000000000000000000000600082015250565b6000610cf7600f83610af4565b9150610d0282610cc1565b602082019050919050565b60006020820190508181036000830152610d2681610cea565b9050919050565b6000819050919050565b610d48610d4382610872565b610d2d565b82525050565b600081549050919050565b600081905092915050565b60008190508160005260206000209050919050565b610d8281610950565b82525050565b6000610d948383610d79565b60208301905092915050565b60008160001c9050919050565b600073ffffffffffffffffffffffffffffffffffffffff82169050919050565b6000610de0610ddb83610da0565b610dad565b9050919050565b6000610df38254610dcd565b9050919050565b6000600182019050919050565b6000610e1282610d4e565b610e1c8185610d59565b9350610e2783610d64565b8060005b83811015610e5f57610e3c82610de7565b610e468882610d88565b9750610e5183610dfa565b925050600181019050610e2b565b5085935050505092915050565b6000610e788286610d37565b602082019150610e888285610d37565b602082019150610e988284610e07565b915081905094935050505056fea2646970667358221220b8458fac1b8d83b00fb41157f6ab2050896d6151c328e1c23fa7499bbc17730664736f6c63430008130033",
  "immutableReferences": {},
  "source": "// SPDX-License-Identifier: MIT\npragma solidity ^0.8.19;\n\ncontract Lottery {\n    address public manager;\n    address[] public players;\n    address[] public winners;\n    uint[] public rewards;\n\n    constructor() {\n        manager = msg.sender;\n    }\n\n    function enter() public payable {\n        require(msg.value > .01 ether, \"Minimum eth .01\");\n        players.push(msg.sender);\n    }\n\n    function random() private view returns (uint) {\n        return uint(keccak256(abi.encodePacked(block.prevrandao, block.timestamp, players)));\n    }\n\n        function pickWinner() public restricted {\n        require(players.length > 0, \"No players in the lottery\");\n        uint index = random() % players.length;\n        address payable winner = payable(players[index]);\n        uint reward = address(this).balance;\n\n        // Kifizetjk a nyertesnek a nyeremnyt\n        winner.transfer(reward);\n        \n        // Eltroljuk a nyertest s a nyeremny sszegt\n        winners.push(winner);\n        rewards.push(reward);\n\n        // Nyertesek tmbt reseteljk\n        players = new address payable[](0) ; \n    }\n\n\n    modifier restricted() {\n        require(msg.sender == manager, \"Csak a manager tudja meghivni a fuggvenyt\");\n        _;\n    }\n\n    function getPlayers() public view returns (address[] memory) {\n        return players;\n    }\n\n    function getWinners() public view returns (address[] memory) {\n        return winners;\n    }\n\n    function getRewards() public view returns (uint[] memory) {\n        return rewards;\n    }\n}\n",
  "sourcePath": "/Users/erikjoee/lottery/contracts/lottery.sol",
  "compiler": {
    "name": "solc",
    "version": "0.8.19+commit.7dd6d404.Emscripten.clang"
  },
  "schemaVersion": "3.4.16",
  "updatedAt": "2024-06-20T11:25:28.906Z",
  "networkType": "ethereum",
  "devdoc": {
    "kind": "dev",
    "methods": {},
    "version": 1
  },
  "userdoc": {
    "kind": "user",
    "methods": {},
    "version": 1
  }
}