{
  "contractName": "Lottery",
  "abi": [
    {
      "inputs": [],
      "stateMutability": "nonpayable",
      "type": "constructor"
    },
    {
      "inputs": [],
      "name": "manager",
      "outputs": [
        {
          "internalType": "address",
          "name": "",
          "type": "address"
        }
      ],
      "stateMutability": "view",
      "type": "function",
      "constant": true
    },
    {
      "inputs": [
        {
          "internalType": "uint256",
          "name": "",
          "type": "uint256"
        }
      ],
      "name": "players",
      "outputs": [
        {
          "internalType": "address",
          "name": "",
          "type": "address"
        }
      ],
      "stateMutability": "view",
      "type": "function",
      "constant": true
    },
    {
      "inputs": [
        {
          "internalType": "uint256",
          "name": "",
          "type": "uint256"
        }
      ],
      "name": "rewards",
      "outputs": [
        {
          "internalType": "uint256",
          "name": "",
          "type": "uint256"
        }
      ],
      "stateMutability": "view",
      "type": "function",
      "constant": true
    },
    {
      "inputs": [
        {
          "internalType": "uint256",
          "name": "",
          "type": "uint256"
        }
      ],
      "name": "winners",
      "outputs": [
        {
          "internalType": "address",
          "name": "",
          "type": "address"
        }
      ],
      "stateMutability": "view",
      "type": "function",
      "constant": true
    },
    {
      "inputs": [],
      "name": "enter",
      "outputs": [],
      "stateMutability": "payable",
      "type": "function",
      "payable": true
    },
    {
      "inputs": [],
      "name": "pickWinner",
      "outputs": [],
      "stateMutability": "nonpayable",
      "type": "function"
    },
    {
      "inputs": [],
      "name": "getPlayers",
      "outputs": [
        {
          "internalType": "address[]",
          "name": "",
          "type": "address[]"
        }
      ],
      "stateMutability": "view",
      "type": "function",
      "constant": true
    },
    {
      "inputs": [],
      "name": "getWinners",
      "outputs": [
        {
          "internalType": "address[]",
          "name": "",
          "type": "address[]"
        }
      ],
      "stateMutability": "view",
      "type": "function",
      "constant": true
    },
    {
      "inputs": [],
      "name": "getRewards",
      "outputs": [
        {
          "internalType": "uint256[]",
          "name": "",
          "type": "uint256[]"
        }
      ],
      "stateMutability": "view",
      "type": "function",
      "constant": true
    }
  ],
  "bytecode": "0x608060405234801561001057600080fd5b50336000806101000a81548173ffffffffffffffffffffffffffffffffffffffff021916908373ffffffffffffffffffffffffffffffffffffffff160217905550610e27806100606000396000f3fe6080604052600436106100865760003560e01c8063a2fb117511610059578063a2fb117514610123578063df15c37e14610160578063e97dcb621461018b578063f301af4214610195578063f71d96cb146101d257610086565b80630572b0cc1461008b578063481c6a75146100b65780635d495aea146100e15780638b5b9ccc146100f8575b600080fd5b34801561009757600080fd5b506100a061020f565b6040516100ad91906108c6565b60405180910390f35b3480156100c257600080fd5b506100cb610267565b6040516100d89190610929565b60405180910390f35b3480156100ed57600080fd5b506100f661028b565b005b34801561010457600080fd5b5061010d6104b5565b60405161011a9190610a02565b60405180910390f35b34801561012f57600080fd5b5061014a60048036038101906101459190610a55565b610543565b6040516101579190610929565b60405180910390f35b34801561016c57600080fd5b50610175610582565b6040516101829190610a02565b60405180910390f35b610193610610565b005b3480156101a157600080fd5b506101bc60048036038101906101b79190610a55565b6106be565b6040516101c99190610a91565b60405180910390f35b3480156101de57600080fd5b506101f960048036038101906101f49190610a55565b6106e2565b6040516102069190610929565b60405180910390f35b6060600380548060200260200160405190810160405280929190818152602001828054801561025d57602002820191906000526020600020905b815481526020019060010190808311610249575b5050505050905090565b60008054906101000a900473ffffffffffffffffffffffffffffffffffffffff1681565b60008054906101000a900473ffffffffffffffffffffffffffffffffffffffff1673ffffffffffffffffffffffffffffffffffffffff163373ffffffffffffffffffffffffffffffffffffffff1614610319576040517f08c379a000000000000000000000000000000000000000000000000000000000815260040161031090610b2f565b60405180910390fd5b6000600180549050610329610721565b6103339190610b7e565b905060006001828154811061034b5761034a610baf565b5b9060005260206000200160009054906101000a900473ffffffffffffffffffffffffffffffffffffffff16905060004790508173ffffffffffffffffffffffffffffffffffffffff166108fc829081150290604051600060405180830381858888f193505050501580156103c3573d6000803e3d6000fd5b506002829080600181540180825580915050600190039060005260206000200160009091909190916101000a81548173ffffffffffffffffffffffffffffffffffffffff021916908373ffffffffffffffffffffffffffffffffffffffff1602179055506003819080600181540180825580915050600190039060005260206000200160009091909190915055600067ffffffffffffffff81111561046b5761046a610bde565b5b6040519080825280602002602001820160405280156104995781602001602082028036833780820191505090505b50600190805190602001906104af929190610757565b50505050565b6060600180548060200260200160405190810160405280929190818152602001828054801561053957602002820191906000526020600020905b8160009054906101000a900473ffffffffffffffffffffffffffffffffffffffff1673ffffffffffffffffffffffffffffffffffffffff16815260200190600101908083116104ef575b5050505050905090565b6002818154811061055357600080fd5b906000526020600020016000915054906101000a900473ffffffffffffffffffffffffffffffffffffffff1681565b6060600280548060200260200160405190810160405280929190818152602001828054801561060657602002820191906000526020600020905b8160009054906101000a900473ffffffffffffffffffffffffffffffffffffffff1673ffffffffffffffffffffffffffffffffffffffff16815260200190600101908083116105bc575b5050505050905090565b662386f26fc100003411610659576040517f08c379a000000000000000000000000000000000000000000000000000000000815260040161065090610c59565b60405180910390fd5b6001339080600181540180825580915050600190039060005260206000200160009091909190916101000a81548173ffffffffffffffffffffffffffffffffffffffff021916908373ffffffffffffffffffffffffffffffffffffffff160217905550565b600381815481106106ce57600080fd5b906000526020600020016000915090505481565b600181815481106106f257600080fd5b906000526020600020016000915054906101000a900473ffffffffffffffffffffffffffffffffffffffff1681565b60004442600160405160200161073993929190610db8565b6040516020818303038152906040528051906020012060001c905090565b8280548282559060005260206000209081019282156107d0579160200282015b828111156107cf5782518260006101000a81548173ffffffffffffffffffffffffffffffffffffffff021916908373ffffffffffffffffffffffffffffffffffffffff16021790555091602001919060010190610777565b5b5090506107dd91906107e1565b5090565b5b808211156107fa5760008160009055506001016107e2565b5090565b600081519050919050565b600082825260208201905092915050565b6000819050602082019050919050565b6000819050919050565b61083d8161082a565b82525050565b600061084f8383610834565b60208301905092915050565b6000602082019050919050565b6000610873826107fe565b61087d8185610809565b93506108888361081a565b8060005b838110156108b95781516108a08882610843565b97506108ab8361085b565b92505060018101905061088c565b5085935050505092915050565b600060208201905081810360008301526108e08184610868565b905092915050565b600073ffffffffffffffffffffffffffffffffffffffff82169050919050565b6000610913826108e8565b9050919050565b61092381610908565b82525050565b600060208201905061093e600083018461091a565b92915050565b600081519050919050565b600082825260208201905092915050565b6000819050602082019050919050565b61097981610908565b82525050565b600061098b8383610970565b60208301905092915050565b6000602082019050919050565b60006109af82610944565b6109b9818561094f565b93506109c483610960565b8060005b838110156109f55781516109dc888261097f565b97506109e783610997565b9250506001810190506109c8565b5085935050505092915050565b60006020820190508181036000830152610a1c81846109a4565b905092915050565b600080fd5b610a328161082a565b8114610a3d57600080fd5b50565b600081359050610a4f81610a29565b92915050565b600060208284031215610a6b57610a6a610a24565b5b6000610a7984828501610a40565b91505092915050565b610a8b8161082a565b82525050565b6000602082019050610aa66000830184610a82565b92915050565b600082825260208201905092915050565b7f4f6e6c7920746865206d616e616765722063616e2063616c6c2074686973206660008201527f756e6374696f6e00000000000000000000000000000000000000000000000000602082015250565b6000610b19602783610aac565b9150610b2482610abd565b604082019050919050565b60006020820190508181036000830152610b4881610b0c565b9050919050565b7f4e487b7100000000000000000000000000000000000000000000000000000000600052601260045260246000fd5b6000610b898261082a565b9150610b948361082a565b925082610ba457610ba3610b4f565b5b828206905092915050565b7f4e487b7100000000000000000000000000000000000000000000000000000000600052603260045260246000fd5b7f4e487b7100000000000000000000000000000000000000000000000000000000600052604160045260246000fd5b7f4d696e696d756d206574686572207265717569726564206973202e3031000000600082015250565b6000610c43601d83610aac565b9150610c4e82610c0d565b602082019050919050565b60006020820190508181036000830152610c7281610c36565b9050919050565b6000819050919050565b610c94610c8f8261082a565b610c79565b82525050565b600081549050919050565b600081905092915050565b60008190508160005260206000209050919050565b610cce81610908565b82525050565b6000610ce08383610cc5565b60208301905092915050565b60008160001c9050919050565b600073ffffffffffffffffffffffffffffffffffffffff82169050919050565b6000610d2c610d2783610cec565b610cf9565b9050919050565b6000610d3f8254610d19565b9050919050565b6000600182019050919050565b6000610d5e82610c9a565b610d688185610ca5565b9350610d7383610cb0565b8060005b83811015610dab57610d8882610d33565b610d928882610cd4565b9750610d9d83610d46565b925050600181019050610d77565b5085935050505092915050565b6000610dc48286610c83565b602082019150610dd48285610c83565b602082019150610de48284610d53565b915081905094935050505056fea26469706673582212200db1289805e875ea44fbc54c8c2d12d863ba656c8787de70c4c455e8cd171ddd64736f6c63430008130033",
  "immutableReferences": {},
  "source": "// SPDX-License-Identifier: MIT\npragma solidity ^0.8.19;\n\ncontract Lottery {\n    address public manager;\n    address[] public players;\n    address[] public winners;\n    uint[] public rewards;\n\n    constructor() {\n        manager = msg.sender;\n    }\n\n    function enter() public payable {\n        require(msg.value > .01 ether, \"Minimum ether required is .01\");\n        players.push(msg.sender);\n    }\n\n    function random() private view returns (uint) {\n        return uint(keccak256(abi.encodePacked(block.prevrandao, block.timestamp, players)));\n    }\n\n    function pickWinner() public restricted {\n        uint index = random() % players.length;\n        address winner = players[index];\n        uint reward = address(this).balance;\n\n        // Transfer the balance to the winner\n        payable(winner).transfer(reward);\n        \n        // Store the winner and the reward\n        winners.push(winner);\n        rewards.push(reward);\n\n        // Reset the players array\n      players = new address payable[](0) ;\n    }\n\n    modifier restricted() {\n        require(msg.sender == manager, \"Only the manager can call this function\");\n        _;\n    }\n\n    function getPlayers() public view returns (address[] memory) {\n        return players;\n    }\n\n    function getWinners() public view returns (address[] memory) {\n        return winners;\n    }\n\n    function getRewards() public view returns (uint[] memory) {\n        return rewards;\n    }\n}\n",
  "sourcePath": "/Users/erikjoee/lottery/contracts/lottery.sol",
  "compiler": {
    "name": "solc",
    "version": "0.8.19+commit.7dd6d404.Emscripten.clang"
  },
  "schemaVersion": "3.4.16",
  "updatedAt": "2024-06-20T10:40:31.956Z",
  "networkType": "ethereum",
  "devdoc": {
    "kind": "dev",
    "methods": {},
    "version": 1
  },
  "userdoc": {
    "kind": "user",
    "methods": {},
    "version": 1
  }
}